:100000000C94A2030C94CA030C94CA030C94CA0364
:100010000C94CA030C94CA030C94CA030C94CA032C
:100020000C94CA030C94CA030C94CA030C94CA031C
:100030000C94CA030C94A00C0C94CA030C94CA032D
:100040000C94CC0A0C94CA030C946E0C0C94480CBF
:100050000C94CA030C94CA030C94CA030C94CA03EC
:100060000C94CA030C94CA030000000000000000B6
:100070000000000000000000000000000000000080
:100080000000000000000000000000000000000070
:100090000000000000000000000000000000000060
:1000A000000000000000000000000101010101014A
:1000B0000101010101010101010101010101010130
:1000C000010101010101010101010101010102021E
:1000D0000202020202020202020202020202020200
:1000E00002020202020303030303030303030303E5
:1000F00003030303030303040404040404040404C7
:1001000004040404040405050505050505050505A5
:100110000505050606060606060606060606060781
:100120000707070707070707070708080808080859
:10013000080808080909090909090909090A0A0A30
:100140000A0A0A0A0A0A0B0B0B0B0B0B0B0B0C0C03
:100150000C0C0C0C0C0C0D0D0D0D0D0D0D0E0E0ED2
:100160000E0E0E0E0F0F0F0F6477646661667275C8
:1001700069742031367833322047424544204D613E
:1001800074726978006461667569742031367833F9
:100190003220524742204C4544204D6174726978A8
:1001A00000736C736C7364616672697420313633EA
:1001B0003220524742204C4544204D617472697888
:1001C0000020206466646166727569742031367837
:1001D0003320524742204C4544204D617472697867
:1001E000004164616672756974203136783332205B
:1001F000524742204C4544204D617472697800801A
:10020000000200001000000000003E5B4F5B3E3E1D
:100210006B4F6B3E1C3E7C3E1C183C7E3C181C57B2
:100220007D571C1C5E7F5E1C00183C1800FFE7C356
:10023000E7FF0018241800FFE7DBE7FF30483A0625
:100240000E2629792926407F050507407F05253F91
:100250005A3CE73C5A7F3E1C1C08081C1C3E7F147D
:10026000227F22145F5F005F5F06097F017F0066C7
:1002700089956A606060606094A2FFA29408047E21
:10028000040810207E201008082A1C08081C2A08D0
:10029000081E101010100C1E0C1E0C30383E38308A
:1002A000060E3E0E06000000000000005F00000089
:1002B00007000700147F147F14242A7F2A122313B7
:1002C00008646236495620500008070300001C22CB
:1002D00041000041221C002A1C7F1C2A08083E08FD
:1002E00008008070300008080808080000606000FE
:1002F00020100804023E5149453E00427F400072F2
:10030000494949462141494D331814127F10274568
:100310004545393C4A494931412111090736494986
:100320004936464949291E000014000000403400A7
:10033000000008142241141414141400412214085B
:1003400002015909063E415D594E7C1211127C7F13
:10035000494949363E414141227F4141413E7F4921
:100360004949417F090909013E414151737F08080C
:10037000087F00417F41002040413F017F08142257
:10038000417F404040407F021C027F7F0408107F75
:100390003E4141413E7F090909063E4151215E7FB0
:1003A00009192946264949493203017F01033F4083
:1003B00040403F1F2040201F3F4038403F6314080B
:1003C000146303047804036159494D43007F41419C
:1003D000410204081020004141417F04020102044F
:1003E0004040404040000307080020545478407FBC
:1003F000284444383844444428384444287F3854F6
:1004000054541800087E090218A4A49C787F08049C
:10041000047800447D40002040403D007F10284487
:100420000000417F40007C047804787C0804047854
:100430003844444438FC1824241818242418FC7C1C
:1004400008040408485454542404043F44243C4001
:1004500040207C1C2040201C3C4030403C44281064
:1004600028444C9090907C4464544C44000836419D
:10047000000000770000004136080002010204027B
:100480003C2623263C1EA1A161123A4040207A3826
:100490005454555921555579412254547842215587
:1004A00054784020545579400C1E527212395555DB
:1004B0005559395454545939555454580000457CB1
:1004C000410002457D420001457C407D1211127DB4
:1004D000F0282528F07C545545002054547C547C49
:1004E0000A097F4932494949323A4444443A324A36
:1004F0004848303A4141217A3A42402078009DA054
:10050000A07D3D4242423D3D4040403D3C24FF24D1
:1005100024487E4943662B2FFC2F2BFF0929F62008
:10052000C0887E090320545479410000447D413045
:1005300048484A32384040227A007A0A0A727D0DD1
:1005400019317D2629292F28262929292630484D89
:100550004020380808080808080808382F10C8ACD8
:10056000BA2F102834FA00007B000008142A142245
:1005700022142A14085500550055AA55AA55AAFF59
:1005800055FF55FF000000FF00101010FF0014146D
:1005900014FF001010FF00FF1010F010F0141414DE
:1005A000FC001414F700FF0000FF00FF1414F40413
:1005B000FC141417101F10101F101F1414141F0008
:1005C000101010F0000000001F101010101F10106D
:1005D0001010F010000000FF10101010101010107C
:1005E00010FF10000000FF140000FF00FF00001FBC
:1005F00010170000FC04F414141710171414F4045A
:10060000F40000FF00F714141414141414F700F786
:10061000141414171410101F101F141414F41410B1
:1006200010F010F000001F101F0000001F14000049
:1006300000FC140000F010F01010FF10FF14141450
:10064000FF141010101F00000000F010FFFFFFFF4C
:10065000FFF0F0F0F0F0FFFFFF0000000000FFFFF0
:100660000F0F0F0F0F3844443844FC4A4A4A347E77
:1006700002020606027E027E026355494163384447
:10068000443C04407E201E2006027E020299A5E71B
:10069000A5991C2A492A1C4C7201724C304A4D4DB6
:1006A000303048784830BC625A463D3E494949009E
:1006B0007E0101017E2A2A2A2A2A44445F444440BA
:1006C000514A444040444A51400000FF0103E08049
:1006D000FF000008086B6B083612362436060F0937
:1006E0000F06000018180000001010003040FF0135
:1006F00001001F01011E00191D1712003C3C3C3C6B
:10070000000000000000000000240027002A000173
:100710000204081020408001020408102001020495
:1007200008102000000000250028002B000404040D
:10073000040404040402020202020203030303038A
:100740000300EB1111241FBECFEFD8E0DEBFCDBFF9
:1007500011E0A0E0B1E0E6E4F9E202C005900D92FC
:10076000AA34B107D9F722E0AAE4B1E001C01D9292
:10077000A933B207E1F713E0C2EAD3E004C021973E
:10078000FE010E946213C13AD107C9F70E94FD0E13
:100790000C94A1140C940000CF92DF92EF92FF9280
:1007A0000F931F93CF93DF93DC0177FD22C118963F
:1007B0008D919C911997681779070CF01AC157FD14
:1007C00018C11A968D919C911B97481759070CF0E8
:1007D00010C15596EC91559714968D919C91159753
:1007E000E23059F0E330C9F0E13001F5FC01319716
:1007F000E41BF50BAB01BF0119C0FC013197EF0100
:10080000C61BD70BBE011696ED91FC911797319739
:10081000EF01C41BD50BAE0109C01696ED91FC91FA
:1008200017973197E61BF70BBA01AF018901012F2A
:10083000112702950F70F02EE901CC0FCD2FCC1FA0
:10084000DD0BD195EC2FEF70EE2E36952795E22F2C
:10085000EF70DE2E5E96EC915E97F0E0017011274E
:100860003C2F317021704E175F070CF06CC05F9603
:10087000EC915F97ED01CE0FD11DCE0FD11D489F9A
:10088000F001499FF00D589FF00D1124AF01440F66
:10089000551FE40FF51F6E0F7F1FEA8DFB8DE60FCE
:1008A000F71F880F991FEF01C80FD91F88818C7F10
:1008B0008883012B59F01496CD91DC911597CC0FBC
:1008C000DD1FCE0FDF1F888181608883332359F0BD
:1008D0001496CD91DC911597CC0FDD1FCE0FDF1F45
:1008E0008881826088831496CD91DC911597CE0F14
:1008F000DF1F8881222331F08160888323E030E08C
:1009000092E01AC08E7FF9CF8083892F8E2119F053
:10091000808188608083892F8D2119F0808180619A
:10092000808314964D915C911597E40FF51F990FF4
:100930002150310909F45DC08081837E492F4F2108
:1009400019F38460E1CF5F96CC905F97ED01CC0DF9
:10095000D11DCC0DD11D4E1B5F0B489FF001499F4F
:10096000F00D589FF00D1124CF01880F991FE80F4B
:10097000F91F6E0F7F1FEA8DFB8DE60FF71F808139
:100980008C7F80831496CD91DC911597CE0FDF1F5D
:100990008881012B11F0826001C08D7F8883332311
:1009A00019F0808181608083222319F08081826028
:1009B000808323E030E092E080818F71492F4F21C6
:1009C00009F080628083892F8E2119F080818064F4
:1009D0008083892F8D2119F080818068808314960F
:1009E0004D915C911597E40FF51F990F2150310936
:1009F00019F7DF91CF911F910F91FF90EF90DF904A
:100A0000CF9008950895FC016370658B8481958172
:100A100026813781613039F0633029F091878087F2
:100A200033872287089531872087938782870895A7
:100A30002F923F924F925F926F927F928F929F92EE
:100A4000AF92BF92CF92DF92EF92FF920F931F93DC
:100A5000CF93DF93CDB7DEB76C970FB6F894DEBFB8
:100A60000FBECDBF9C8F8B8F1B012A0118870F8370
:100A7000FE82ED82CA82DC0158964D915C915997B5
:100A80004115510509F0B2C018968D919C911997A6
:100A9000681779070CF096C11A968D919C911B9757
:100AA000481659060CF08EC1AC2CB12CCB01B6E027
:100AB000CB9E800D911D1124181619060CF082C1D1
:100AC000C50133E0880F991F3A95E1F7840D951D14
:100AD000181619060CF076C1AB8DBC8D57968C910B
:100AE000811103C0203B08F02F5FAB8DBC8DED91D1
:100AF000FC9111970680F781E02DCD012A8F099591
:100B00002A8DB5E02B9F90011124610141011B82C8
:100B1000F901E219F309FA87E9879201285F3F4F4B
:100B20003C872B873B81353049F0E985FA85E80D14
:100B3000F91DEB5FFD4F4491498301C019823201D9
:100B40001201598150FF13C0AB8DBC8DED91FC910A
:100B5000BA81B13031F40084F185E02D2F813885E0
:100B600019C00284F385E02DEF80F8841EC0ED816A
:100B7000FE812F813885E217F307F1F0AB8DBC8D34
:100B8000ED91FC91BA81B13059F40084F185E02DEA
:100B90002D813E81A301B4018B8D9C8D09950CC0E4
:100BA0000284F385E02DED80FE8085019501A10191
:100BB000B6018B8D9C8D0995E981E695E983FFEF60
:100BC0006F1A7F0A2A0C3B1C2B853C856216730624
:100BD00009F0B7CF3B813F5F3B834FEF841A940A04
:100BE000CA0CDB1C363009F09DCFCAC0FA0134961E
:100BF0009491329765917491291BCB01B7E02B9F9B
:100C0000800D911D1124FA01259134913A8B298B85
:100C1000FC0165907490FC01329634913D833196CD
:100C200044914B873296C490319614915A81523038
:100C300058F08C2C0C2C000C9908812F012E000CE4
:100C4000990B9C838B8304C01C821B82812C912C6A
:100C5000AB8DBC8DED91FC9111970680F781E02D55
:100C6000CD010995BA81AB2EB12C8A9CC0018B9C19
:100C7000900D9A9C900D1124FC01E20DF31DF88B50
:100C8000EF871982912C812CEC2DCC0CFF0B91015C
:100C90002E0F3F1F3A87298761013D81C30ED11C6A
:100CA000A6014E0F5F1F5F8B4E8BC201810F911DFE
:100CB00017FD9A95998F888F5B85851608F060C01F
:100CC000882D90E04B815C81480F591F4A9D90010F
:100CD0004B9D300D5A9D300D1124D901A40DB51D29
:100CE000BE87AD87C984DA842F843888B981E985C5
:100CF000BE1BBB8B288D398D280F391F3D8B2C8B4C
:100D00008B898C0D2E893F89C216D30699F1877085
:100D100041F4C3010196E989FA89E60DF71D949023
:100D20003C0197FE20C0AB8DBC8DED91FC91BA814A
:100D3000B13061F40084F185E02D2F8138854C8934
:100D40005D89B6018B8D9C8D09950DC00284F3855C
:100D5000E02DEF80F884850195014D855E85B10118
:100D60008B8D9C8D0995990CEFEFCE1ADE0A2A0C1B
:100D70003B1CC6CF39814D81340F398383949CCF7E
:100D8000AB8DBC8DED91FC9111970288F389E02D1C
:100D9000CD016C960FB6F894DEBF0FBECDBFDF91CC
:100DA000CF911F910F91FF90EF90DF90CF90BF9068
:100DB000AF909F908F907F906F905F904F903F90FB
:100DC0002F9009946C960FB6F894DEBF0FBECDBF7E
:100DD000DF91CF911F910F91FF90EF90DF90CF9017
:100DE000BF90AF909F908F907F906F905F904F904B
:100DF0003F902F900895AF92BF92CF92EF92FF92C3
:100E00000F931F93CF93DF93EC01262F888D998D3D
:100E1000009709F042C06A3069F42C898E859F855D
:100E200038E0239F800D911D11249F878E871D869A
:100E30001C86ACC06D3009F4A9C08E898823C1F02E
:100E40003C898C859D8546E0349F800D911D112441
:100E500048855985841795075CF01D861C868E850C
:100E60009F85E8E03E9F800D911D11249F878E870E
:100E7000EA88FB88088919894E855F856C857D85A0
:100E8000CC88CE010E9418052C898C859D85F6E0C2
:100E90002F9F800D911D112441C06A3079F41D8669
:100EA0001C862C89FC013696E4918E859F852E9FA9
:100EB000800D911D11249F878E8768C06D3009F4C5
:100EC00065C0AC014C5F5F4FFA013491631708F4C1
:100ED0005DC03196E491E61708F458C0FA014491D8
:100EE000362F341BFC013296A590B490F7E03F9F5B
:100EF000A00CB11C1124F501329634913196E49185
:100F0000332311F0E1110DC0F5013496E4912C89E1
:100F10008C859D85E29F800D911D11249D878C8776
:100F200035C0F501359644915E89552311F16C89E0
:100F3000E32FF0E0E40FF11D47FDFA956E9FD0011D
:100F40006F9FB00D11244C855D854A0F5B1FE885AE
:100F5000F9854E175F076CF01D861C86FC013696DE
:100F6000E4918E859F856E9F800D911D11249F8732
:100F70008E87EA88FB88088919894E855F856C858C
:100F80007D85CC88CE010E941805BECF81E090E01F
:100F9000DF91CF911F910F91FF90EF90CF90BF9075
:100FA000AF9008956F927F928F929F92AF92BF926F
:100FB000CF92DF92EF92FF920F931F93CF93DF9325
:100FC000EC014B015A0169013801E881F981068081
:100FD000F781E02D0995E881F9810684F785E02DF8
:100FE00087019601A501B401CE010995E881F98137
:100FF000A501460D571D415051090684F785E02D86
:101000009601B401CE010995E881F9810484F58542
:10101000E02D9301A501B401CE010995E881F98184
:10102000C80CD91CB601615071090484F585E02D06
:101030009301A501CE010995E881F9810288F38920
:10104000E02DCE01DF91CF911F910F91FF90EF9096
:10105000DF90CF90BF90AF909F908F907F906F90D8
:101060000994CF92DF92EF92FF920F931F93CF9349
:10107000DF9300D000D000D0CDB7DEB76C01DC012B
:10108000ED91FC916217730789F4041715072CF48E
:10109000942F852FA801092F182F041B150B9801D9
:1010A0002F5F3F4F008CF18DE02D12C0401751078C
:1010B00009F5261737072CF4962F872FB901292F0A
:1010C000382F261B370B2F5F3F4F028CF38DE02DFF
:1010D0008701C601099526960FB6F894DEBF0FBEAC
:1010E000CDBFDF91CF911F910F91FF90EF90DF90D7
:1010F000CF9008950680F781E02D2D833E834B83AA
:101100005C8369837A830995D601ED91FC9100880F
:10111000F189E02D2D813E814B815C8169817A814D
:10112000C6010995D601ED91FC910288F389E02D65
:10113000C60126960FB6F894DEBF0FBECDBFDF9175
:10114000CF911F910F91FF90EF90DF90CF90099476
:10115000EF92FF920F931F93DC01ED91FC91119799
:101160001A960D911C911B9718962D913C911997E9
:10117000048CF58DE02D7B0140E050E060E070E0F4
:1011800009951F910F91FF90EF9008954F925F92F4
:101190006F927F928F929F92AF92BF92CF92DF9287
:1011A000EF92FF920F931F93CF93DF9300D0CDB7B1
:1011B000DEB76C015A0139014801DC01ED91FC9167
:1011C0000680F781E02D69837A8309956981462E2F
:1011D0007A81572E640C751CD601ED91FC91461452
:1011E00057046CF40484F585E02D87019401A50172
:1011F000B201C6010995BFEF4B1A5B0AEDCF028819
:10120000F389E02DC6010F900F90DF91CF911F91D0
:101210000F91FF90EF90DF90CF90BF90AF909F9095
:101220008F907F906F905F904F900994AF92BF9294
:10123000CF92DF92EF92FF920F931F93CF93DF93A2
:1012400000D000D0CDB7DEB75C016901DC01ED91C3
:10125000FC910680F781E02D4B835C8369837A8360
:101260000995D501ED91FC9169817A819B012C0D45
:101270003D1D215031090088F189E02D78014B8115
:101280005C818A01C5010995D501ED91FC91028827
:10129000F389E02DC5010F900F900F900F90DF9113
:1012A000CF911F910F91FF90EF90DF90CF90BF9063
:1012B000AF900994AF92BF92CF92DF92EF92FF92DC
:1012C0000F931F93CF93DF9300D000D0CDB7DEB73D
:1012D0005C016901DC01ED91FC910680F781E02D54
:1012E0004B835C8369837A830995D501ED91FC91E9
:1012F0004B815C81C40ED51EB1E0CB1AD1080088A9
:10130000F189E02D7801860169817A819B01C5010F
:101310000995D501ED91FC910288F389E02DC50175
:101320000F900F900F900F90DF91CF911F910F9121
:10133000FF90EF90DF90CF90BF90AF900994089509
:10134000EF92FF920F931F93DC01ED91FC91048CBF
:10135000F58DE02D09951F910F91FF90EF90089565
:101360000F931F93DC01ED91FC91028CF38DE02D26
:1013700009951F910F9108950F931F93DC01ED9133
:10138000FC91008CF18DE02D09951F910F9108952E
:10139000DC01ED91FC910480F581E02D0994089524
:1013A0002F923F924F925F926F927F928F929F9275
:1013B000AF92BF92CF92DF92EF92FF920F931F9363
:1013C000CF93DF9300D01F92CDB7DEB74C017B8364
:1013D0006A836A01590117019801241B350B37FFF5
:1013E00003C0319521953109C5014A815B81841B78
:1013F000950B97FF03C091958195910951E0598311
:101400008217930714F019820BC09A2D8B2D580167
:10141000092F182F9A818B81DB82CA82C92ED82E80
:101420008A819B81A816B9065CF49C2D8D2D6801DC
:10143000092F182F9A818B81BB82AA82A92EB82EE0
:101440002501AA81BB814A1A5B0A38016C187D0804
:1014500077FE03C0719461947108720157FE03C056
:10146000BFEFEB1AFB0AF594E794C016D1061CF007
:101470000FEF1FEF1FC001E010E01CC0D401ED9181
:10148000FC91B9810084F185E02D9101BB23C1F06D
:101490004A815B81B601C4010995E618F708F7FE99
:1014A00004C0C00ED11EE40CF51CEA81FB8131960C
:1014B000FB83EA834A815B81A416B506FCF604C06F
:1014C000A6016A817B81E7CF0F900F900F90DF918B
:1014D000CF911F910F91FF90EF90DF90CF90BF9031
:1014E000AF909F908F907F906F905F904F903F90C4
:1014F0002F9008953FB7F894809151019091520137
:10150000A0915301B091540126B5A89B05C02F3F6F
:1015100019F00196A11DB11D3FBFBA2FA92F982F19
:101520008827820F911DA11DB11DBC01CD0142E094
:10153000660F771F881F991F4A95D1F70895CF929C
:10154000DF92EF92FF920F931F93CF93DF936C0183
:101550007A018B01C0E0D0E0CE15DF0589F0D8011B
:101560006D918D01D601ED91FC910190F081E02DFE
:10157000C6010995892B11F47E0102C02196ECCF9A
:10158000C701DF91CF911F910F91FF90EF90DF90F6
:10159000CF9008950E9495141F920F920FB60F924C
:1015A00011242F933F938F939F93AF93BF93809179
:1015B0004D0190914E01A0914F01B0915001309199
:1015C0004C0123E0230F2D3720F40196A11DB11DFE
:1015D00005C026E8230F0296A11DB11D20934C01E2
:1015E00080934D0190934E01A0934F01B093500111
:1015F0008091510190915201A0915301B0915401F9
:101600000196A11DB11D8093510190935201A093A9
:101610005301B0935401BF91AF919F918F913F912E
:101620002F910F900FBE0F901F901895FC01918D78
:10163000828D981761F0828DDF01A80FB11D5D9634
:101640008C91928D9F5F9F73928F90E008958FEFA2
:101650009FEF0895FC01918D828D981731F0828D56
:10166000E80FF11D858D90E008958FEF9FEF0895AD
:10167000FC01918D228D892F90E0805C9F4F821B11
:1016800091098F7399270895FC01848DDF01A80FBC
:10169000B11DA35ABF4F2C91848D90E001968F739A
:1016A0009927848FA689B7892C93A089B1898C91B9
:1016B00080648C93938D848D981306C00288F3897F
:1016C000E02D80818F7D80830895EF92FF920F93AC
:1016D0001F93CF93DF93EC0181E0888F9B8D8C8DDE
:1016E000981305C0E889F989808185FD24C0F62E0C
:1016F0000B8D10E00F5F1F4F0F731127E02E8C8DA5
:10170000E8120CC00FB607FCFACFE889F98980818E
:1017100085FFF5CFCE010E94440BF1CF8B8DFE01EA
:10172000E80FF11DE35AFF4FF0820B8FEA89FB8926
:101730008081806207C0EE89FF896083E889F9892A
:1017400080818064808381E090E0DF91CF911F9160
:101750000F91FF90EF900895CF93DF93EC01888D68
:101760008823C9F0EA89FB89808185FD05C0A889A5
:10177000B9898C9186FD0FC00FB607FCF5CF80812B
:1017800085FFF2CFA889B9898C9185FFEDCFCE0175
:101790000E94440BE7CFDF91CF91089588E991E053
:1017A0000E94380B21E0892B09F420E0822F089554
:1017B00080E090E0892B29F00E94CE0B81110C94DF
:1017C000000008959B01215031092E3F3F4FF0F05A
:1017D000DC015F962C915F975E963C915E97149624
:1017E000ED91FC9115973E9FA0013F9F500D112454
:1017F000FA01EE0FFF1F4E0F5F1FFC01E20FF11DFC
:10180000E20FF11D828D938D0C949A140C94A8080C
:1018100090E0FC01E15FF84F2491FC01E35DF84F9B
:101820008491882399F090E0880F991FFC01EB5F69
:10183000F84FA591B491FC01ED5DF84F859194911D
:101840008FB7F894EC91E22BEC938FBF08950F9330
:101850001F93CF93DF938C01C0E0D0E0F801EC0F31
:10186000FD1F6491662371F0E0915901F0915A01D6
:101870000190F081E02D89E591E00995892B11F027
:101880002196ECCFCE01DF91CF911F910F9108955A
:101890001F920F920FB60F9211242F933F934F93E5
:1018A0005F936F937F938F939F93AF93BF93EF93C8
:1018B000FF9388E991E00E94440BFF91EF91BF9163
:1018C000AF919F918F917F916F915F914F913F91D8
:1018D0002F910F900FBE0F901F9018951F920F928F
:1018E0000FB60F9211242F938F939F93EF93FF9333
:1018F000E091A801F091A9018081E091AE01F09101
:10190000AF0182FD12C090818091B1018F5F8F7312
:101910002091B201821751F0E091B101F0E0E85658
:10192000FE4F958F8093B10101C08081FF91EF91AF
:101930009F918F912F910F900FBE0F901F90189530
:101940001F920F920FB60F921124EF92FF920F93F6
:101950001F932F933F934F935F936F937F938F9337
:101960009F93AF93BF93CF93DF93EF93FF93A09198
:101970005501B09156019396ED91FC919497908109
:101980009F968C919F97892B80839196ED91FC91E6
:10199000929790819E968C919E97892B80835E96DC
:1019A0003C915E97393018F480E991E002C088ECF0
:1019B00090E0DC962C91DC9788589F4F02C0880FEE
:1019C000991F2A95E2F7CC97DC962C91DC972F5F34
:1019D000DC962C93DC97243098F1DC961C92DC97F3
:1019E000DB962C91DB972F5FDB962C93DB972317ED
:1019F00008F47DC0DB961C92DB9790962C91909713
:101A0000222359F05F963C915F9721E0231B5F965C
:101A10002C935F9790961C9290975F962C915F976E
:101A2000E1E0F0E0E21BF1093D96EE0FFF1FEA0F47
:101A3000FB1F20813181DE963C932E93DD9757C0AA
:101A4000DC962C91DC97213009F051C0DB963C915B
:101A5000DB979596ED91FC919697D0962C91D09727
:101A600030FF03C03081232B03C030812095232316
:101A70002083DB963C91DB979796ED91FC919897AC
:101A8000D1962C91D19731FF03C03081232B03C015
:101A90003081209523232083DB963C91DB97999618
:101AA000ED91FC919A97D2962C91D29732FF03C078
:101AB0003081232B03C030812095232320835E9621
:101AC0002C915E97293098F0DB963C91DB979B96A2
:101AD000ED91FC919C97D3962C91D39733FF03C043
:101AE0003081232B03C03081209523232083DD9672
:101AF000ED91FC91DE979093870080938600109281
:101B00008500109284009396CD91DC9194979881F2
:101B10009F968C919F978095892388839196CD91EC
:101B2000DC91929798819E968C919E9780958923BF
:101B3000888395B19D968C919D97892BDC962C91ED
:101B4000DC97222309F40DC101900BB885B995B932
:101B500001900BB885B995B901900BB885B995B9C5
:101B600001900BB885B995B901900BB885B995B9B5
:101B700001900BB885B995B901900BB885B995B9A5
:101B800001900BB885B995B901900BB885B995B995
:101B900001900BB885B995B901900BB885B995B985
:101BA00001900BB885B995B901900BB885B995B975
:101BB00001900BB885B995B901900BB885B995B965
:101BC00001900BB885B995B901900BB885B995B955
:101BD00001900BB885B995B901900BB885B995B945
:101BE00001900BB885B995B901900BB885B995B935
:101BF00001900BB885B995B901900BB885B995B925
:101C000001900BB885B995B901900BB885B995B914
:101C100001900BB885B995B901900BB885B995B904
:101C200001900BB885B995B901900BB885B995B9F4
:101C300001900BB885B995B901900BB885B995B9E4
:101C400001900BB885B995B914962D913C911597D3
:101C50002034310509F080C001900BB885B995B9E1
:101C600001900BB885B995B901900BB885B995B9B4
:101C700001900BB885B995B901900BB885B995B9A4
:101C800001900BB885B995B901900BB885B995B994
:101C900001900BB885B995B901900BB885B995B984
:101CA00001900BB885B995B901900BB885B995B974
:101CB00001900BB885B995B901900BB885B995B964
:101CC00001900BB885B995B901900BB885B995B954
:101CD00001900BB885B995B901900BB885B995B944
:101CE00001900BB885B995B901900BB885B995B934
:101CF00001900BB885B995B901900BB885B995B924
:101D000001900BB885B995B901900BB885B995B913
:101D100001900BB885B995B901900BB885B995B903
:101D200001900BB885B995B901900BB885B995B9F3
:101D300001900BB885B995B901900BB885B995B9E3
:101D400001900BB885B995B901900BB885B995B9D3
:101D500001900BB885B995B9DE96FC93EE93DD97AB
:101D600033C0F12C6F2D70E014964D915C91159756
:101D7000641775074CF58B01040F151F9F01200F89
:101D8000311FE9012881D0E12D9F90011124C22F3C
:101D9000C073EC2E4E0F5F1F400F511FEA013881B8
:101DA000D4E03D9F900111242C702E296E0F7F1FCF
:101DB000EB014881D0E44D9FA0011124242B2BB9C5
:101DC00085B995B9F394CECF86B386BBFF91EF91D9
:101DD000DF91CF91BF91AF919F918F917F916F9143
:101DE0005F914F913F912F911F910F91FF90EF9035
:101DF0000F900FBE0F901F901895CF93DF93CDB724
:101E0000DEB768970FB6F894DEBF0FBECDBF7894EB
:101E100084B5826084BD84B5816084BD85B58260EF
:101E200085BD85B5816085BD80916E0081608093A0
:101E30006E00109281008091810082608093810009
:101E40008091810081608093810080918000816019
:101E5000809380008091B10084608093B100809174
:101E6000B00081608093B00080917A00846080939C
:101E70007A0080917A00826080937A0080917A0063
:101E8000816080937A0080917A00806880937A00E4
:101E90001092C1001092780180917801E1E0F0E0A9
:101EA000E81BF109EE0FFF1FED58FE4F8081918175
:101EB000909397018093960189E591E09093560164
:101EC0008093550180918D010E94080C95B18091FD
:101ED00086018095892385B980918E010E94080C26
:101EE000E0917A01F0917B0190818091870180954A
:101EF0008923808380918F010E94080CE0917C01EE
:101F0000F0917D01908180918801892B808380915F
:101F100090010E94080CE0917E01F0917F01908178
:101F200080918901809589238083809191010E940D
:101F3000080CE0918001F0918101908180918A01EB
:101F4000809589238083809192010E94080CE09102
:101F50008201F0918301908180918B01809589238A
:101F6000808380917701893070F0809193010E9485
:101F7000080CE0918401F0918501908180918C01A1
:101F80008095892380838CEF8AB91BB892E0909367
:101F9000800089E18093810024E630E0309387005F
:101FA0002093860080916F00816080936F00789409
:101FB00010926F0190936D0160E070E089E591E00F
:101FC0000E94E20B2FEF31E03E872D8741E051E088
:101FD000588F4F8B60E071E07A83698383E091E0F2
:101FE00098878F83A2E0B1E0BE83AD83ED85FE8547
:101FF00025903490EF89F88D8081282F880F330B3E
:102000003A872987A981BA814C90042C000C550885
:10201000A9014550510981012BE030E0B20189E569
:1020200091E00E94BC0988248394912CC12CD12C6E
:1020300095E0E92EF12CE6EFFFEFFC87EB872CEF24
:10204000622E77247A943FEFC31AD30A42E0840EBB
:10205000911C680C791C5701AA0CBB1C5FEFA51AD8
:10206000B50AB2016C0D7D1D8101950189859A85A6
:102070008E199F099C838B83AC0189E591E00E94B6
:10208000BC09A985BA85AC19BD09B88BAF87940185
:10209000AD01B2016E0D7F1D89E591E00E94BC0982
:1020A000B2016C197D0995014B815C8189E591E054
:1020B0000E94BC0994014F855889B2016E197F09AD
:1020C00089E591E00E94BC09CE14DF0474F477FC2A
:1020D000BACFF1E0EF1AF1082B853C852E5F3F4F18
:1020E0003C872B87620E731EAECFE981FA81908107
:1020F000AD81BE818C91890F8083EF89F88D9081AD
:10210000AF81B8858C91890F8083E981FA818081C4
:10211000882309F454C1082E000C990B2091610109
:1021200030916201215031098217930709F447C1A8
:10213000AF89B88D8C91882309F447C1082E000C13
:10214000990B20916301309164012150310982176C
:10215000930709F43AC1ED85FE853296FE87ED8737
:102160002F89388D2C5F3F4F388F2F8B49815A81B3
:102170004C5F5F4F5A8349836F8178856C5F7F4FD7
:1021800078876F838D819E8104969E838D832D50E9
:10219000314009F02BCF60914A0170914B01072E1D
:1021A000000C880B990B20E036E040E050E00E94E4
:1021B000211397FF03C07A5F8F4F9F4F462FC72E83
:1021C000D82EE92EFF24E7FCFA94A2E0CA16D10427
:1021D000E104F10401F17CF4C114D104E104F1043F
:1021E00021F1CA94CD28CE28CF28D9F4862F809506
:1021F00060E04FEF1CC0F3E0CF16D104E104F1041E
:1022000061F024E0C216D104E104F10451F4862FF8
:102210006FEF40E00CC04FEF02C040956FEF80E0E1
:1022200006C0642F609540E001C060E08FEF2FEFA3
:1022300030E0261B31096FEF70E0681B7109609573
:10224000698B1A8AE989FA89E859FF4F8491AFEFBF
:10225000B0E0A41BB109A095AB8B1C8AEB89FC896B
:10226000E859FF4F9491B22FB095BD8B1E8AED892E
:10227000FE89E859FF4FE4912E2F30E0E0E89E9F61
:10228000A0011124682F70E0762F66277295707F69
:10229000642B752BA901440F551F462B572BA3E028
:1022A00035952795AA95E1F7242B352B8870482F73
:1022B00050E0542F4427422B532B9C70F8E09F9FF3
:1022C00090011124422B532B50936C0140936B01CE
:1022D00050936A0140936901809157019091580190
:1022E000909366018093650121E030E030936801AE
:1022F0002093670181EE91E00E94270C81EC91E030
:102300000E94270C81EA91E00E94270C85E891E069
:102310000E94270C88E691E00E94270C80915701CB
:1023200090915801019790935801809357018839F3
:102330009E4F44F480916101909162019093580105
:102340008093570180914A0190914B019C01295F34
:102350003F4F211546E034072CF430934B01209376
:102360004A0106C0895F954090934B0180934A01D2
:1023700020917301309174018091750190917601E3
:1023800028173907C9F081E080937901809179019C
:10239000882391F00E947A0A6B017C010E947A0ADC
:1023A000DC01CB018C199D09AE09BF09883E934021
:1023B000A105B10558F7F2CF0E94D80BFDCDAD8134
:1023C000BE818C9181958C93B3CEEF81F88580810D
:1023D00081958083C0CECF93DF9310929B011092A2
:1023E0009A0188EE93E0A0E0B0E080939C01909386
:1023F0009D01A0939E01B0939F0186E191E090938F
:1024000099018093980185EC90E09093A5018093C9
:10241000A40184EC90E09093A7018093A60180EC46
:1024200090E09093A9018093A80181EC90E09093B3
:10243000AB018093AA0182EC90E09093AD01809370
:10244000AC0186EC90E09093AF018093AE011092C6
:10245000B1011092B2011092B3011092B401109226
:102460005C0110925B0180E290E090935E018093AA
:102470005D019093600180935F019093620180936E
:102480006101909364018093630110926E01109238
:102490006601109265011092680110926701C1E017
:1024A000C0936D018FEF9FEF90936C0180936B0150
:1024B00090936A0180936901C0936F01109270013B
:1024C000109272011092710186E291E090935A018C
:1024D00080935901D0E1D093770180E09CE00E9485
:1024E00068139093740180937301009709F48AC074
:1024F00020E03CE0FC01A901119241505040E1F77D
:102500009A5F90937601809375018EE0809390019D
:102510008FE080939101D093920191E190938D018E
:1025200099E090938E01C0938F01E0E2F7E0E4918F
:10253000E0938601E6E3F7E0E491F0E0EE0FFF1FA1
:10254000ED5DF84F2591349130937B0120937A0112
:10255000E8E1F7E0E491E0938701EEE2F7E0E4914F
:10256000F0E0EE0FFF1FED5DF84F259134913093B1
:102570007D0120937C01E0E1F7E0E491E0938801A4
:10258000EBE3F7E0E491F0E0EE0FFF1FED5DF84FB5
:102590002591349130937F0120937E01EDE1F7E0A6
:1025A000E491E0938901ECE3F7E0E491F0E0EE0FD1
:1025B000FF1FED5DF84F25913491309381012093F9
:1025C0008001EEE1F7E0E491E0938A01EDE3F7E0CA
:1025D000E491F0E0EE0FFF1FED5DF84F259134918F
:1025E0003093830120938201EFE1F7E0E491E093DF
:1025F0008B0193E09093950180939401109279015F
:102600001092780188E080939301E5E3F7E0E4918C
:10261000F0E0EE0FFF1FED5DF84F859194919093E0
:10262000850180938401E7E1F7E0E491E0938C0178
:1026300080E290E09093580180935701DF91CF9111
:102640000895052E97FB1EF400940E94381357FD41
:1026500007D00E94401307FC03D04EF40C943813AB
:1026600050954095309521953F4F4F4F5F4F0895BE
:1026700090958095709561957F4F8F4F9F4F0895EE
:10268000A1E21A2EAA1BBB1BFD010DC0AA1FBB1F76
:10269000EE1FFF1FA217B307E407F50720F0A21BE8
:1026A000B30BE40BF50B661F771F881F991F1A9455
:1026B00069F760957095809590959B01AC01BD017F
:1026C000CF010895EE0FFF1F0590F491E02D0994BE
:1026D000CF93DF938230910510F482E090E0E09197
:1026E0003702F091380220E030E0C0E0D0E03097CF
:1026F00011F14081518148175907C0F04817590717
:1027000061F482819381209719F09B838A832BC087
:10271000909338028093370226C02115310519F0B5
:102720004217530718F49A01BE01DF01EF0102803E
:10273000F381E02DDCCF2115310509F1281B390B80
:102740002430310590F412968D919C911397611568
:10275000710521F0FB019383828304C090933802BA
:1027600080933702FD01329644C0FD01E20FF31F52
:1027700081939193225031092D933C933AC020913B
:10278000350230913602232B41F420910E01309115
:102790000F01309336022093350220910C013091C5
:1027A0000D012115310541F42DB73EB740911001BF
:1027B00050911101241B350BE0913502F091360246
:1027C000E217F307A0F42E1B3F0B2817390778F008
:1027D000AC014E5F5F4F2417350748F04E0F5F1F67
:1027E00050933602409335028193919302C0E0E00A
:1027F000F0E0CF01DF91CF9108950F931F93CF9316
:10280000DF93009709F48CC0FC0132971382128287
:1028100000913702109138020115110581F42081D1
:102820003181820F931F2091350230913602281793
:10283000390779F5F0933602E093350271C0D8017B
:1028400040E050E0AE17BF0750F412962D913C9136
:102850001397AD012115310509F1D901F3CF9D0180
:10286000DA013383228360817181860F971F82177B
:10287000930769F4EC0128813981260F371F2E5FF9
:102880003F4F318320838A819B8193838283452BB1
:1028900029F4F0933802E093370242C01396FC9378
:1028A000EE931297ED01499159919E01240F351F26
:1028B000E217F30771F480819181840F951F0296CE
:1028C00011969C938E938281938113969C938E9301
:1028D0001297E0E0F0E0D80112968D919C91139749
:1028E000009719F0F8018C01F6CF8D919C91980119
:1028F0002E5F3F4F820F931F209135023091360299
:102900002817390769F4309729F410923802109289
:10291000370202C0138212821093360200933502EE
:10292000DF91CF911F910F91089581E090E0F8948D
:102930000C94A114DC0101C06D9341505040E0F7AC
:062940000895F894FFCF9A
:1029460003000101110F01FF1B04FF010000390202
:10295600800000000000650B9F0A380B160B2A0B3F
:10296600AC0B00000000FB069F0ACC03CF09C80988
:10297600A009BC09B009D0099F09030502055A0937
:0A2986001609C608E20B3108D2075B
:00000001FF
